:100000000C942A000C9434000C9434000C943400AA
:100010000C9434000C9434000C9434000C94340090
:100020000C9434000C9434000C9434000C94340080
:100030000C9434000C9434000C9434000C94340070
:100040000C9434000C9434000C9434000C94340060
:100050000C94340011241FBECFE5D4E0DEBFCDBF29
:100060000E9436000C9442000C940000D09A20E5C7
:1000700033ECD89AC9010197F1F7D898C9010197D3
:08008000F1F7F7CFF894FFCF70
:00000001FF
